{
  "_format": "hh-sol-artifact-1",
  "contractName": "CryptoBears",
  "sourceName": "contracts/CryptoBears.sol",
  "abi": [
    {
      "inputs": [],
      "stateMutability": "nonpayable",
      "type": "constructor"
    },
    {
      "anonymous": false,
      "inputs": [
        {
          "indexed": true,
          "internalType": "address",
          "name": "owner",
          "type": "address"
        },
        {
          "indexed": true,
          "internalType": "address",
          "name": "approved",
          "type": "address"
        },
        {
          "indexed": true,
          "internalType": "uint256",
          "name": "tokenId",
          "type": "uint256"
        }
      ],
      "name": "Approval",
      "type": "event"
    },
    {
      "anonymous": false,
      "inputs": [
        {
          "indexed": true,
          "internalType": "address",
          "name": "owner",
          "type": "address"
        },
        {
          "indexed": true,
          "internalType": "address",
          "name": "operator",
          "type": "address"
        },
        {
          "indexed": false,
          "internalType": "bool",
          "name": "approved",
          "type": "bool"
        }
      ],
      "name": "ApprovalForAll",
      "type": "event"
    },
    {
      "anonymous": false,
      "inputs": [
        {
          "indexed": true,
          "internalType": "address",
          "name": "from",
          "type": "address"
        },
        {
          "indexed": true,
          "internalType": "address",
          "name": "to",
          "type": "address"
        },
        {
          "indexed": true,
          "internalType": "uint256",
          "name": "tokenId",
          "type": "uint256"
        }
      ],
      "name": "Transfer",
      "type": "event"
    },
    {
      "inputs": [
        {
          "internalType": "uint256",
          "name": "",
          "type": "uint256"
        }
      ],
      "name": "allCryptoBears",
      "outputs": [
        {
          "internalType": "uint256",
          "name": "tokenId",
          "type": "uint256"
        },
        {
          "internalType": "string",
          "name": "tokenName",
          "type": "string"
        },
        {
          "internalType": "string",
          "name": "tokenURI",
          "type": "string"
        },
        {
          "internalType": "address payable",
          "name": "mintedBy",
          "type": "address"
        },
        {
          "internalType": "address payable",
          "name": "currentOwner",
          "type": "address"
        },
        {
          "internalType": "address payable",
          "name": "previousOwner",
          "type": "address"
        },
        {
          "internalType": "uint256",
          "name": "price",
          "type": "uint256"
        },
        {
          "internalType": "uint256",
          "name": "numberOfTransfers",
          "type": "uint256"
        },
        {
          "internalType": "bool",
          "name": "forSale",
          "type": "bool"
        }
      ],
      "stateMutability": "view",
      "type": "function"
    },
    {
      "inputs": [
        {
          "internalType": "address",
          "name": "to",
          "type": "address"
        },
        {
          "internalType": "uint256",
          "name": "tokenId",
          "type": "uint256"
        }
      ],
      "name": "approve",
      "outputs": [],
      "stateMutability": "nonpayable",
      "type": "function"
    },
    {
      "inputs": [
        {
          "internalType": "address",
          "name": "owner",
          "type": "address"
        }
      ],
      "name": "balanceOf",
      "outputs": [
        {
          "internalType": "uint256",
          "name": "",
          "type": "uint256"
        }
      ],
      "stateMutability": "view",
      "type": "function"
    },
    {
      "inputs": [],
      "name": "baseURI",
      "outputs": [
        {
          "internalType": "string",
          "name": "",
          "type": "string"
        }
      ],
      "stateMutability": "view",
      "type": "function"
    },
    {
      "inputs": [
        {
          "internalType": "uint256",
          "name": "tokenId",
          "type": "uint256"
        }
      ],
      "name": "burn",
      "outputs": [],
      "stateMutability": "nonpayable",
      "type": "function"
    },
    {
      "inputs": [
        {
          "internalType": "uint256",
          "name": "_tokenId",
          "type": "uint256"
        }
      ],
      "name": "buyToken",
      "outputs": [],
      "stateMutability": "payable",
      "type": "function"
    },
    {
      "inputs": [
        {
          "internalType": "uint256",
          "name": "_tokenId",
          "type": "uint256"
        },
        {
          "internalType": "uint256",
          "name": "_newPrice",
          "type": "uint256"
        }
      ],
      "name": "changeTokenPrice",
      "outputs": [],
      "stateMutability": "nonpayable",
      "type": "function"
    },
    {
      "inputs": [],
      "name": "collectionName",
      "outputs": [
        {
          "internalType": "string",
          "name": "",
          "type": "string"
        }
      ],
      "stateMutability": "view",
      "type": "function"
    },
    {
      "inputs": [],
      "name": "collectionNameSymbol",
      "outputs": [
        {
          "internalType": "string",
          "name": "",
          "type": "string"
        }
      ],
      "stateMutability": "view",
      "type": "function"
    },
    {
      "inputs": [
        {
          "internalType": "string",
          "name": "",
          "type": "string"
        }
      ],
      "name": "colorExists",
      "outputs": [
        {
          "internalType": "bool",
          "name": "",
          "type": "bool"
        }
      ],
      "stateMutability": "view",
      "type": "function"
    },
    {
      "inputs": [],
      "name": "cryptoBearCounter",
      "outputs": [
        {
          "internalType": "uint256",
          "name": "",
          "type": "uint256"
        }
      ],
      "stateMutability": "view",
      "type": "function"
    },
    {
      "inputs": [
        {
          "internalType": "uint256",
          "name": "tokenId",
          "type": "uint256"
        }
      ],
      "name": "getApproved",
      "outputs": [
        {
          "internalType": "address",
          "name": "",
          "type": "address"
        }
      ],
      "stateMutability": "view",
      "type": "function"
    },
    {
      "inputs": [],
      "name": "getNumberOfTokensMinted",
      "outputs": [
        {
          "internalType": "uint256",
          "name": "",
          "type": "uint256"
        }
      ],
      "stateMutability": "view",
      "type": "function"
    },
    {
      "inputs": [
        {
          "internalType": "uint256",
          "name": "_tokenId",
          "type": "uint256"
        }
      ],
      "name": "getTokenExists",
      "outputs": [
        {
          "internalType": "bool",
          "name": "",
          "type": "bool"
        }
      ],
      "stateMutability": "view",
      "type": "function"
    },
    {
      "inputs": [
        {
          "internalType": "uint256",
          "name": "_tokenId",
          "type": "uint256"
        }
      ],
      "name": "getTokenMetaData",
      "outputs": [
        {
          "internalType": "string",
          "name": "",
          "type": "string"
        }
      ],
      "stateMutability": "view",
      "type": "function"
    },
    {
      "inputs": [
        {
          "internalType": "uint256",
          "name": "_tokenId",
          "type": "uint256"
        }
      ],
      "name": "getTokenOwner",
      "outputs": [
        {
          "internalType": "address",
          "name": "",
          "type": "address"
        }
      ],
      "stateMutability": "view",
      "type": "function"
    },
    {
      "inputs": [
        {
          "internalType": "address",
          "name": "_owner",
          "type": "address"
        }
      ],
      "name": "getTotalNumberOfTokensOwnedByAnAddress",
      "outputs": [
        {
          "internalType": "uint256",
          "name": "",
          "type": "uint256"
        }
      ],
      "stateMutability": "view",
      "type": "function"
    },
    {
      "inputs": [
        {
          "internalType": "address",
          "name": "owner",
          "type": "address"
        },
        {
          "internalType": "address",
          "name": "operator",
          "type": "address"
        }
      ],
      "name": "isApprovedForAll",
      "outputs": [
        {
          "internalType": "bool",
          "name": "",
          "type": "bool"
        }
      ],
      "stateMutability": "view",
      "type": "function"
    },
    {
      "inputs": [
        {
          "internalType": "string",
          "name": "_name",
          "type": "string"
        },
        {
          "internalType": "string",
          "name": "_tokenURI",
          "type": "string"
        },
        {
          "internalType": "uint256",
          "name": "_price",
          "type": "uint256"
        },
        {
          "internalType": "string[]",
          "name": "_colors",
          "type": "string[]"
        }
      ],
      "name": "mintCryptoBear",
      "outputs": [],
      "stateMutability": "nonpayable",
      "type": "function"
    },
    {
      "inputs": [],
      "name": "name",
      "outputs": [
        {
          "internalType": "string",
          "name": "",
          "type": "string"
        }
      ],
      "stateMutability": "view",
      "type": "function"
    },
    {
      "inputs": [
        {
          "internalType": "uint256",
          "name": "tokenId",
          "type": "uint256"
        }
      ],
      "name": "ownerOf",
      "outputs": [
        {
          "internalType": "address",
          "name": "",
          "type": "address"
        }
      ],
      "stateMutability": "view",
      "type": "function"
    },
    {
      "inputs": [
        {
          "internalType": "address",
          "name": "from",
          "type": "address"
        },
        {
          "internalType": "address",
          "name": "to",
          "type": "address"
        },
        {
          "internalType": "uint256",
          "name": "tokenId",
          "type": "uint256"
        }
      ],
      "name": "safeTransferFrom",
      "outputs": [],
      "stateMutability": "nonpayable",
      "type": "function"
    },
    {
      "inputs": [
        {
          "internalType": "address",
          "name": "operator",
          "type": "address"
        },
        {
          "internalType": "bool",
          "name": "approved",
          "type": "bool"
        }
      ],
      "name": "setApprovalForAll",
      "outputs": [],
      "stateMutability": "nonpayable",
      "type": "function"
    },
    {
      "inputs": [
        {
          "internalType": "bytes4",
          "name": "interfaceId",
          "type": "bytes4"
        }
      ],
      "name": "supportsInterface",
      "outputs": [
        {
          "internalType": "bool",
          "name": "",
          "type": "bool"
        }
      ],
      "stateMutability": "pure",
      "type": "function"
    },
    {
      "inputs": [],
      "name": "symbol",
      "outputs": [
        {
          "internalType": "string",
          "name": "",
          "type": "string"
        }
      ],
      "stateMutability": "view",
      "type": "function"
    },
    {
      "inputs": [
        {
          "internalType": "uint256",
          "name": "_tokenId",
          "type": "uint256"
        }
      ],
      "name": "toggleForSale",
      "outputs": [],
      "stateMutability": "nonpayable",
      "type": "function"
    },
    {
      "inputs": [
        {
          "internalType": "uint256",
          "name": "index",
          "type": "uint256"
        }
      ],
      "name": "tokenByIndex",
      "outputs": [
        {
          "internalType": "uint256",
          "name": "",
          "type": "uint256"
        }
      ],
      "stateMutability": "view",
      "type": "function"
    },
    {
      "inputs": [
        {
          "internalType": "string",
          "name": "",
          "type": "string"
        }
      ],
      "name": "tokenNameExists",
      "outputs": [
        {
          "internalType": "bool",
          "name": "",
          "type": "bool"
        }
      ],
      "stateMutability": "view",
      "type": "function"
    },
    {
      "inputs": [
        {
          "internalType": "address",
          "name": "owner",
          "type": "address"
        },
        {
          "internalType": "uint256",
          "name": "index",
          "type": "uint256"
        }
      ],
      "name": "tokenOfOwnerByIndex",
      "outputs": [
        {
          "internalType": "uint256",
          "name": "",
          "type": "uint256"
        }
      ],
      "stateMutability": "view",
      "type": "function"
    },
    {
      "inputs": [
        {
          "internalType": "uint256",
          "name": "tokenId",
          "type": "uint256"
        }
      ],
      "name": "tokenURI",
      "outputs": [
        {
          "internalType": "string",
          "name": "",
          "type": "string"
        }
      ],
      "stateMutability": "view",
      "type": "function"
    },
    {
      "inputs": [
        {
          "internalType": "string",
          "name": "",
          "type": "string"
        }
      ],
      "name": "tokenURIExists",
      "outputs": [
        {
          "internalType": "bool",
          "name": "",
          "type": "bool"
        }
      ],
      "stateMutability": "view",
      "type": "function"
    },
    {
      "inputs": [],
      "name": "totalSupply",
      "outputs": [
        {
          "internalType": "uint256",
          "name": "",
          "type": "uint256"
        }
      ],
      "stateMutability": "view",
      "type": "function"
    },
    {
      "inputs": [
        {
          "internalType": "address",
          "name": "from",
          "type": "address"
        },
        {
          "internalType": "address",
          "name": "to",
          "type": "address"
        },
        {
          "internalType": "uint256",
          "name": "tokenId",
          "type": "uint256"
        }
      ],
      "name": "transferFrom",
      "outputs": [],
      "stateMutability": "nonpayable",
      "type": "function"
    }
  ],
  "bytecode": "0x60806040523480156200001157600080fd5b50604080518082018252601781527f43727970746f20426561727320436f6c6c656374696f6e0000000000000000006020808301919091528251808401909352600283526121a160f11b9083015290620000726301ffc9a760e01b62000098565b6001620000808382620001c1565b5060026200008f8282620001c1565b5050506200028d565b6001600160e01b03198082169003620000f75760405162461bcd60e51b815260206004820152601c60248201527f4552433136353a20696e76616c696420696e7465726661636520696400000000604482015260640160405180910390fd5b6001600160e01b0319166000908152602081905260409020805460ff19166001179055565b634e487b7160e01b600052604160045260246000fd5b600181811c908216806200014757607f821691505b6020821081036200016857634e487b7160e01b600052602260045260246000fd5b50919050565b601f821115620001bc57600081815260208120601f850160051c81016020861015620001975750805b601f850160051c820191505b81811015620001b857828155600101620001a3565b5050505b505050565b81516001600160401b03811115620001dd57620001dd6200011c565b620001f581620001ee845462000132565b846200016e565b602080601f8311600181146200022d5760008415620002145750858301515b600019600386901b1c1916600185901b178555620001b8565b600085815260208120601f198616915b828110156200025e578886015182559484019460019091019084016200023d565b50858210156200027d5787850151600019600388901b60f8161c191681555b5050505050600190811b01905550565b612ecb806200029d6000396000f3fe6080604052600436106101fe5760003560e01c80636352211e1161011d57806399b053e6116100b0578063a5cd761f1161007f578063cc151f3a11610064578063cc151f3a14610621578063e5326ab114610636578063e985e9c51461064b57600080fd5b8063a5cd761f146105e1578063c87b56dd1461060157600080fd5b806399b053e614610550578063a22cb46514610566578063a32018b914610586578063a46b1fac146105a657600080fd5b806370a08231116100ec57806370a08231146104ab5780638d44807c146104cb578063921be2471461050657806395d89b411461053b57600080fd5b80636352211e1461044157806367c623cf146104615780636c0360eb146104815780636f9507f91461049657600080fd5b80632e38892d11610195578063439028501161016457806343902850146103a657806343d32ae7146103c65780634f6ccce71461040157806362e8e8ac1461042157600080fd5b80632e38892d146103265780632f745c591461034657806342842e0e1461036657806342966c681461038657600080fd5b8063142687f3116101d1578063142687f3146102b457806318160ddd146102d457806323b872dd146102f35780632d296bf11461031357600080fd5b806301ffc9a71461020357806306fdde0314610238578063081812fc1461025a578063095ea7b314610292575b600080fd5b34801561020f57600080fd5b5061022361021e366004612785565b610694565b60405190151581526020015b60405180910390f35b34801561024457600080fd5b5061024d6106f0565b60405161022f91906127f2565b34801561026657600080fd5b5061027a610275366004612805565b610782565b6040516001600160a01b03909116815260200161022f565b34801561029e57600080fd5b506102b26102ad36600461283a565b61080e565b005b3480156102c057600080fd5b506102236102cf366004612805565b61096b565b3480156102e057600080fd5b506009545b60405190815260200161022f565b3480156102ff57600080fd5b506102b261030e366004612864565b61098f565b6102b2610321366004612805565b6109f5565b34801561033257600080fd5b506102b2610341366004612943565b610d5f565b34801561035257600080fd5b506102e561036136600461283a565b611071565b34801561037257600080fd5b506102b2610381366004612864565b6110f3565b34801561039257600080fd5b506102b26103a1366004612805565b611154565b3480156103b257600080fd5b506102e56103c1366004612a09565b6111b6565b3480156103d257600080fd5b506102236103e1366004612a24565b805160208183018101805160138252928201919093012091525460ff1681565b34801561040d57600080fd5b506102e561041c366004612805565b6111c2565b34801561042d57600080fd5b506102b261043c366004612a59565b611240565b34801561044d57600080fd5b5061027a61045c366004612805565b611462565b34801561046d57600080fd5b5061024d61047c366004612805565b6114e5565b34801561048d57600080fd5b5061024d6114f2565b3480156104a257600080fd5b5061024d611501565b3480156104b757600080fd5b506102e56104c6366004612a09565b61158f565b3480156104d757600080fd5b506102236104e6366004612a24565b805160208183018101805160128252928201919093012091525460ff1681565b34801561051257600080fd5b50610526610521366004612805565b611603565b60405161022f99989796959493929190612a7b565b34801561054757600080fd5b5061024d61176e565b34801561055c57600080fd5b506102e5600f5481565b34801561057257600080fd5b506102b2610581366004612aed565b61177d565b34801561059257600080fd5b506102b26105a1366004612805565b611841565b3480156105b257600080fd5b506102236105c1366004612a24565b805160208183018101805160118252928201919093012091525460ff1681565b3480156105ed57600080fd5b5061027a6105fc366004612805565b611b25565b34801561060d57600080fd5b5061024d61061c366004612805565b611b31565b34801561062d57600080fd5b506102e5611cc0565b34801561064257600080fd5b5061024d611ccc565b34801561065757600080fd5b50610223610666366004612b29565b6001600160a01b03918216600090815260086020908152604080832093909416825291909152205460ff1690565b60007fffffffff0000000000000000000000000000000000000000000000000000000082167f780e9d630000000000000000000000000000000000000000000000000000000014806106ea57506106ea82611cd9565b92915050565b6060600180546106ff90612b5c565b80601f016020809104026020016040519081016040528092919081815260200182805461072b90612b5c565b80156107785780601f1061074d57610100808354040283529160200191610778565b820191906000526020600020905b81548152906001019060200180831161075b57829003601f168201915b5050505050905090565b60008181526005602052604081205482906001600160a01b03166107ed5760405162461bcd60e51b815260206004820152600a60248201527f6e6f74206d696e7465640000000000000000000000000000000000000000000060448201526064015b60405180910390fd5b6000838152600660205260409020546001600160a01b031691505b50919050565b600061081982611462565b90506001600160a01b03811633148061085557506001600160a01b038116600090815260086020908152604080832033845290915290205460ff165b6108a15760405162461bcd60e51b815260206004820152600c60248201527f6e6f7420616e206f776e6572000000000000000000000000000000000000000060448201526064016107e4565b806001600160a01b0316836001600160a01b0316036109025760405162461bcd60e51b815260206004820152601660248201527f63616e6e6f7420617070726f766520746f2073656c660000000000000000000060448201526064016107e4565b600082815260066020526040808220805473ffffffffffffffffffffffffffffffffffffffff19166001600160a01b0387811691821790925591518593918516917f8c5be1e5ebec7d5bd14f71427d1e84f3dd0314c0f7b2291e5b200ac8c7c3b92591a4505050565b60008181526005602052604081205481906001600160a01b031615155b9392505050565b6109993382611d71565b6109e55760405162461bcd60e51b815260206004820152601860248201527f6e6f7420616e206f776e6572206f7220617070726f766564000000000000000060448201526064016107e4565b6109f0838383611df0565b505050565b336109ff57600080fd5b6000818152600560205260409020546001600160a01b0316610a2057600080fd5b6000610a2b82611462565b90506001600160a01b038116610a4057600080fd5b336001600160a01b03821603610a5557600080fd5b6000601060008481526020019081526020016000206040518061012001604052908160008201548152602001600182018054610a9090612b5c565b80601f0160208091040260200160405190810160405280929190818152602001828054610abc90612b5c565b8015610b095780601f10610ade57610100808354040283529160200191610b09565b820191906000526020600020905b815481529060010190602001808311610aec57829003601f168201915b50505050508152602001600282018054610b2290612b5c565b80601f0160208091040260200160405190810160405280929190818152602001828054610b4e90612b5c565b8015610b9b5780601f10610b7057610100808354040283529160200191610b9b565b820191906000526020600020905b815481529060010190602001808311610b7e57829003601f168201915b505050918352505060038201546001600160a01b039081166020830152600483015481166040830152600583015416606082015260068201546080820152600782015460a082015260089091015460ff16151560c091820152810151909150341015610c0657600080fd5b806101000151610c1557600080fd5b610c20823385611df0565b60808101516040516001600160a01b038216903480156108fc02916000818181858888f19350505050158015610c5a573d6000803e3d6000fd5b506080820180516001600160a01b031660a084015233905260e08201805160019190610c87908390612ba6565b905250600084815260106020908152604090912083518155908301518391906001820190610cb59082612c07565b5060408201516002820190610cca9082612c07565b50606082015160038201805473ffffffffffffffffffffffffffffffffffffffff199081166001600160a01b03938416179091556080840151600484018054831691841691909117905560a0840151600584018054909216921691909117905560c0820151600682015560e08201516007820155610100909101516008909101805460ff191691151591909117905550505050565b33610d6957600080fd5b600f8054906000610d7983612cc7565b9091555050600f546000908152600560205260409020546001600160a01b031615610da357600080fd5b60005b81811015610e11576012838383818110610dc257610dc2612ce1565b9050602002810190610dd49190612cf7565b604051610de2929190612d63565b9081526040519081900360200190205460ff1615610dff57600080fd5b80610e0981612cc7565b915050610da6565b50601384604051610e229190612d73565b9081526040519081900360200190205460ff1615610e3f57600080fd5b601185604051610e4f9190612d73565b9081526040519081900360200190205460ff1615610e6c57600080fd5b610e7833600f54611f75565b610e84600f5485612088565b60005b81811015610ef75760016012848484818110610ea557610ea5612ce1565b9050602002810190610eb79190612cf7565b604051610ec5929190612d63565b908152604051908190036020019020805491151560ff1990921691909117905580610eef81612cc7565b915050610e87565b506001601385604051610f0a9190612d73565b908152604051908190036020018120805492151560ff1990931692909217909155600190601190610f3c908890612d73565b9081526040805160209281900383018120805460ff19169415159490941790935561012083018152600f5480845282840189815284830189905233606086018190526080860152600060a0860181905260c0860189905260e08601819052600161010087018190529281526010909452919092208351815590518392820190610fc59082612c07565b5060408201516002820190610fda9082612c07565b50606082015160038201805473ffffffffffffffffffffffffffffffffffffffff199081166001600160a01b03938416179091556080840151600484018054831691841691909117905560a0840151600584018054909216921691909117905560c0820151600682015560e08201516007820155610100909101516008909101805460ff1916911515919091179055505050505050565b600061107c8361158f565b82106110ca5760405162461bcd60e51b815260206004820152600c60248201527f6f7574206f6620626f6e6473000000000000000000000000000000000000000060448201526064016107e4565b506001600160a01b03919091166000908152600a60209081526040808320938352929052205490565b6110fd3382611d71565b6111495760405162461bcd60e51b815260206004820152601860248201527f6e6f7420616e206f776e6572206f7220617070726f766564000000000000000060448201526064016107e4565b6109f083838361212a565b61115e3382611d71565b6111aa5760405162461bcd60e51b815260206004820152600a60248201527f6e6f74206f776e6572210000000000000000000000000000000000000000000060448201526064016107e4565b6111b38161218c565b50565b6000806109888361158f565b60006111cd60095490565b821061121b5760405162461bcd60e51b815260206004820152600c60248201527f6f7574206f6620626f6e6473000000000000000000000000000000000000000060448201526064016107e4565b6009828154811061122e5761122e612ce1565b90600052602060002001549050919050565b3361124a57600080fd5b6000828152600560205260409020546001600160a01b031661126b57600080fd5b600061127683611462565b90506001600160a01b038116331461128d57600080fd5b60006010600085815260200190815260200160002060405180610120016040529081600082015481526020016001820180546112c890612b5c565b80601f01602080910402602001604051908101604052809291908181526020018280546112f490612b5c565b80156113415780601f1061131657610100808354040283529160200191611341565b820191906000526020600020905b81548152906001019060200180831161132457829003601f168201915b5050505050815260200160028201805461135a90612b5c565b80601f016020809104026020016040519081016040528092919081815260200182805461138690612b5c565b80156113d35780601f106113a8576101008083540402835291602001916113d3565b820191906000526020600020905b8154815290600101906020018083116113b657829003601f168201915b505050918352505060038201546001600160a01b03908116602080840191909152600484015482166040808501919091526005850154909216606084015260068401546080840152600784015460a084015260089093015460ff16151560c09283015290830186905260008781526010835220825181559082015191925082916001820190610cb59082612c07565b60008181526005602052604081205482906001600160a01b03166114c85760405162461bcd60e51b815260206004820152600a60248201527f6e6f74206d696e7465640000000000000000000000000000000000000000000060448201526064016107e4565b50506000908152600560205260409020546001600160a01b031690565b6060600061098883611b31565b6060600380546106ff90612b5c565b600e805461150e90612b5c565b80601f016020809104026020016040519081016040528092919081815260200182805461153a90612b5c565b80156115875780601f1061155c57610100808354040283529160200191611587565b820191906000526020600020905b81548152906001019060200180831161156a57829003601f168201915b505050505081565b60006001600160a01b0382166115e75760405162461bcd60e51b815260206004820152600c60248201527f7a65726f2061646472657373000000000000000000000000000000000000000060448201526064016107e4565b506001600160a01b031660009081526004602052604090205490565b6010602052600090815260409020805460018201805491929161162590612b5c565b80601f016020809104026020016040519081016040528092919081815260200182805461165190612b5c565b801561169e5780601f106116735761010080835404028352916020019161169e565b820191906000526020600020905b81548152906001019060200180831161168157829003601f168201915b5050505050908060020180546116b390612b5c565b80601f01602080910402602001604051908101604052809291908181526020018280546116df90612b5c565b801561172c5780601f106117015761010080835404028352916020019161172c565b820191906000526020600020905b81548152906001019060200180831161170f57829003601f168201915b5050506003840154600485015460058601546006870154600788015460089098015496976001600160a01b039485169793851696509190931693509060ff1689565b6060600280546106ff90612b5c565b6001600160a01b03821633036117d55760405162461bcd60e51b815260206004820152601660248201527f63616e6e6f7420617070726f766520746f2073656c660000000000000000000060448201526064016107e4565b3360008181526008602090815260408083206001600160a01b03871680855290835292819020805460ff191686151590811790915590519081529192917f17307eab39ab6107e8899845ad3d59bd9653f200f220920489ca2b5937696c31910160405180910390a35050565b3361184b57600080fd5b6000818152600560205260409020546001600160a01b031661186c57600080fd5b600061187782611462565b90506001600160a01b038116331461188e57600080fd5b60006010600084815260200190815260200160002060405180610120016040529081600082015481526020016001820180546118c990612b5c565b80601f01602080910402602001604051908101604052809291908181526020018280546118f590612b5c565b80156119425780601f1061191757610100808354040283529160200191611942565b820191906000526020600020905b81548152906001019060200180831161192557829003601f168201915b5050505050815260200160028201805461195b90612b5c565b80601f016020809104026020016040519081016040528092919081815260200182805461198790612b5c565b80156119d45780601f106119a9576101008083540402835291602001916119d4565b820191906000526020600020905b8154815290600101906020018083116119b757829003601f168201915b505050918352505060038201546001600160a01b039081166020830152600483015481166040830152600583015416606082015260068201546080820152600782015460a082015260089091015460ff16151560c09091015261010081015190915015611a48576000610100820152611a51565b60016101008201525b600083815260106020908152604090912082518155908201518291906001820190611a7c9082612c07565b5060408201516002820190611a919082612c07565b50606082015160038201805473ffffffffffffffffffffffffffffffffffffffff199081166001600160a01b03938416179091556080840151600484018054831691841691909117905560a0840151600584018054909216921691909117905560c0820151600682015560e08201516007820155610100909101516008909101805460ff1916911515919091179055505050565b60008061098883611462565b6000818152600560205260409020546060906001600160a01b0316611bbe5760405162461bcd60e51b815260206004820152602f60248201527f4552433732314d657461646174613a2055524920717565727920666f72206e6f60448201527f6e6578697374656e7420746f6b656e000000000000000000000000000000000060648201526084016107e4565b60008281526007602052604081208054611bd790612b5c565b80601f0160208091040260200160405190810160405280929190818152602001828054611c0390612b5c565b8015611c505780601f10611c2557610100808354040283529160200191611c50565b820191906000526020600020905b815481529060010190602001808311611c3357829003601f168201915b505050505090506000611c616114f2565b90508051600003611c73575092915050565b815115611ca5578082604051602001611c8d929190612d8f565b60405160208183030381529060405292505050919050565b80611caf85612257565b604051602001611c8d929190612d8f565b6000806106ea60095490565b600d805461150e90612b5c565b60007fffffffff0000000000000000000000000000000000000000000000000000000082167f382117130000000000000000000000000000000000000000000000000000000014806106ea57507fffffffff0000000000000000000000000000000000000000000000000000000082167f5b5e139f000000000000000000000000000000000000000000000000000000001492915050565b600080611d7d83611462565b9050806001600160a01b0316846001600160a01b03161480611dc457506001600160a01b0380821660009081526008602090815260408083209388168352929052205460ff165b80611de85750836001600160a01b0316611ddd84610782565b6001600160a01b0316145b949350505050565b826001600160a01b0316611e0382611462565b6001600160a01b031614611e595760405162461bcd60e51b815260206004820152600c60248201527f6e6f7420616e206f776e6572000000000000000000000000000000000000000060448201526064016107e4565b6001600160a01b038216611eaf5760405162461bcd60e51b815260206004820152601260248201527f746f2063616e6e6f74206265207a65726f21000000000000000000000000000060448201526064016107e4565b611eba83838361238c565b6001600160a01b0383166000908152600460205260408120805491611ede83612dbe565b90915550506001600160a01b0382166000908152600460205260408120805491611f0783612cc7565b9091555050600081815260056020526040808220805473ffffffffffffffffffffffffffffffffffffffff19166001600160a01b0386811691821790925591518493918716917fddf252ad1be2c89b69c2b068fc378daa952ba7f163c4a11628f55a4df523b3ef91a4505050565b6001600160a01b038216611fcb5760405162461bcd60e51b815260206004820152601160248201527f746f2063616e6e6f74206265207a65726f00000000000000000000000000000060448201526064016107e4565b6000818152600560205260409020546001600160a01b0316156120305760405162461bcd60e51b815260206004820152600e60248201527f616c72656164792065786973747300000000000000000000000000000000000060448201526064016107e4565b6000818152600560209081526040808320805473ffffffffffffffffffffffffffffffffffffffff19166001600160a01b03871690811790915583526004909152812080549161207f83612cc7565b91905055505050565b6000828152600560205260409020546001600160a01b03166121125760405162461bcd60e51b815260206004820152602c60248201527f4552433732314d657461646174613a2055524920736574206f66206e6f6e657860448201527f697374656e7420746f6b656e000000000000000000000000000000000000000060648201526084016107e4565b60008281526007602052604090206109f08282612c07565b612135838383611df0565b612140838383612444565b6109f05760405162461bcd60e51b815260206004820152601360248201527f6e6f6e206572633732312072656365697665720000000000000000000000000060448201526064016107e4565b600061219782611462565b90506121a58160008461238c565b6000828152600660209081526040808320805473ffffffffffffffffffffffffffffffffffffffff191690556001600160a01b0384168352600490915281208054916121f083612dbe565b9091555050600082815260056020526040808220805473ffffffffffffffffffffffffffffffffffffffff19169055518391906001600160a01b038416907fddf252ad1be2c89b69c2b068fc378daa952ba7f163c4a11628f55a4df523b3ef908390a45050565b60608160000361229a57505060408051808201909152600181527f3000000000000000000000000000000000000000000000000000000000000000602082015290565b8160005b81156122c457806122ae81612cc7565b91506122bd9050600a83612deb565b915061229e565b60008167ffffffffffffffff8111156122df576122df6128a0565b6040519080825280601f01601f191660200182016040528015612309576020820181803683370190505b5090505b8415611de85761231e600183612dff565b915061232b600a86612e12565b612336906030612ba6565b60f81b81838151811061234b5761234b612ce1565b60200101907effffffffffffffffffffffffffffffffffffffffffffffffffffffffffffff1916908160001a905350612385600a86612deb565b945061230d565b6001600160a01b0383166123e7576123e281600980546000838152600b60205260408120829055600182018355919091527f6e1540171b6c0c960b71a7020d9f60077f6af931a8bbf590da0223dacf75c7af0155565b61240a565b816001600160a01b0316836001600160a01b03161461240a5761240a83826125c9565b6001600160a01b038216612421576109f081612666565b826001600160a01b0316826001600160a01b0316146109f0576109f08282612715565b60006001600160a01b0383163b156125bf57604080516020810182526000815290517f150b7a020000000000000000000000000000000000000000000000000000000081526001600160a01b0385169163150b7a02916124ac91339189918891600401612e26565b6020604051808303816000875af19250505080156124e7575060408051601f3d908101601f191682019092526124e491810190612e62565b60015b612574573d808015612515576040519150601f19603f3d011682016040523d82523d6000602084013e61251a565b606091505b50805160000361256c5760405162461bcd60e51b815260206004820152601560248201527f4e6f6e652065726337323120726563656976657221000000000000000000000060448201526064016107e4565b805181602001fd5b7fffffffff00000000000000000000000000000000000000000000000000000000167f150b7a0200000000000000000000000000000000000000000000000000000000149050610988565b5060019392505050565b600060016125d68461158f565b6125e09190612dff565b6000838152600c6020526040902054909150808214612633576001600160a01b0384166000908152600a602090815260408083208584528252808320548484528184208190558352600c90915290208190555b506000918252600c602090815260408084208490556001600160a01b039094168352600a81528383209183525290812055565b60095460009061267890600190612dff565b6000838152600b6020526040812054600980549394509092849081106126a0576126a0612ce1565b9060005260206000200154905080600983815481106126c1576126c1612ce1565b6000918252602080832090910192909255828152600b909152604080822084905585825281205560098054806126f9576126f9612e7f565b6001900381819060005260206000200160009055905550505050565b60006127208361158f565b6000838152600c602090815260408083208490556001600160a01b039096168252600a815285822092825291909152929092205550565b7fffffffff00000000000000000000000000000000000000000000000000000000811681146111b357600080fd5b60006020828403121561279757600080fd5b813561098881612757565b60005b838110156127bd5781810151838201526020016127a5565b50506000910152565b600081518084526127de8160208601602086016127a2565b601f01601f19169290920160200192915050565b60208152600061098860208301846127c6565b60006020828403121561281757600080fd5b5035919050565b80356001600160a01b038116811461283557600080fd5b919050565b6000806040838503121561284d57600080fd5b6128568361281e565b946020939093013593505050565b60008060006060848603121561287957600080fd5b6128828461281e565b92506128906020850161281e565b9150604084013590509250925092565b634e487b7160e01b600052604160045260246000fd5b600082601f8301126128c757600080fd5b813567ffffffffffffffff808211156128e2576128e26128a0565b604051601f8301601f19908116603f0116810190828211818310171561290a5761290a6128a0565b8160405283815286602085880101111561292357600080fd5b836020870160208301376000602085830101528094505050505092915050565b60008060008060006080868803121561295b57600080fd5b853567ffffffffffffffff8082111561297357600080fd5b61297f89838a016128b6565b9650602088013591508082111561299557600080fd5b6129a189838a016128b6565b95506040880135945060608801359150808211156129be57600080fd5b818801915088601f8301126129d257600080fd5b8135818111156129e157600080fd5b8960208260051b85010111156129f657600080fd5b9699959850939650602001949392505050565b600060208284031215612a1b57600080fd5b6109888261281e565b600060208284031215612a3657600080fd5b813567ffffffffffffffff811115612a4d57600080fd5b611de8848285016128b6565b60008060408385031215612a6c57600080fd5b50508035926020909101359150565b60006101208b8352806020840152612a958184018c6127c6565b90508281036040840152612aa9818b6127c6565b6001600160a01b03998a166060850152978916608084015250509390951660a084015260c083019190915260e0820152911515610100909201919091529392505050565b60008060408385031215612b0057600080fd5b612b098361281e565b915060208301358015158114612b1e57600080fd5b809150509250929050565b60008060408385031215612b3c57600080fd5b612b458361281e565b9150612b536020840161281e565b90509250929050565b600181811c90821680612b7057607f821691505b60208210810361080857634e487b7160e01b600052602260045260246000fd5b634e487b7160e01b600052601160045260246000fd5b808201808211156106ea576106ea612b90565b601f8211156109f057600081815260208120601f850160051c81016020861015612be05750805b601f850160051c820191505b81811015612bff57828155600101612bec565b505050505050565b815167ffffffffffffffff811115612c2157612c216128a0565b612c3581612c2f8454612b5c565b84612bb9565b602080601f831160018114612c6a5760008415612c525750858301515b600019600386901b1c1916600185901b178555612bff565b600085815260208120601f198616915b82811015612c9957888601518255948401946001909101908401612c7a565b5085821015612cb75787850151600019600388901b60f8161c191681555b5050505050600190811b01905550565b60006000198203612cda57612cda612b90565b5060010190565b634e487b7160e01b600052603260045260246000fd5b60008083357fffffffffffffffffffffffffffffffffffffffffffffffffffffffffffffffe1843603018112612d2c57600080fd5b83018035915067ffffffffffffffff821115612d4757600080fd5b602001915036819003821315612d5c57600080fd5b9250929050565b8183823760009101908152919050565b60008251612d858184602087016127a2565b9190910192915050565b60008351612da18184602088016127a2565b835190830190612db58183602088016127a2565b01949350505050565b600081612dcd57612dcd612b90565b506000190190565b634e487b7160e01b600052601260045260246000fd5b600082612dfa57612dfa612dd5565b500490565b818103818111156106ea576106ea612b90565b600082612e2157612e21612dd5565b500690565b60006001600160a01b03808716835280861660208401525083604083015260806060830152612e5860808301846127c6565b9695505050505050565b600060208284031215612e7457600080fd5b815161098881612757565b634e487b7160e01b600052603160045260246000fdfea264697066735822122040b02e464951678739305cb5e0d3951c584496fb92b7b1b6a7926f0e7711d56d64736f6c63430008110033",
  "linkReferences": {},
  "deployedLinkReferences": {}
}