{
  "_format": "hh-sol-artifact-1",
  "contractName": "ERC721",
  "sourceName": "contracts/ERC721.sol",
  "abi": [
    {
      "inputs": [
        {
          "internalType": "string",
          "name": "name_",
          "type": "string"
        },
        {
          "internalType": "string",
          "name": "symbol_",
          "type": "string"
        }
      ],
      "stateMutability": "nonpayable",
      "type": "constructor"
    },
    {
      "anonymous": false,
      "inputs": [
        {
          "indexed": true,
          "internalType": "address",
          "name": "owner",
          "type": "address"
        },
        {
          "indexed": true,
          "internalType": "address",
          "name": "approved",
          "type": "address"
        },
        {
          "indexed": true,
          "internalType": "uint256",
          "name": "tokenId",
          "type": "uint256"
        }
      ],
      "name": "Approval",
      "type": "event"
    },
    {
      "anonymous": false,
      "inputs": [
        {
          "indexed": true,
          "internalType": "address",
          "name": "owner",
          "type": "address"
        },
        {
          "indexed": true,
          "internalType": "address",
          "name": "operator",
          "type": "address"
        },
        {
          "indexed": false,
          "internalType": "bool",
          "name": "approved",
          "type": "bool"
        }
      ],
      "name": "ApprovalForAll",
      "type": "event"
    },
    {
      "anonymous": false,
      "inputs": [
        {
          "indexed": true,
          "internalType": "address",
          "name": "from",
          "type": "address"
        },
        {
          "indexed": true,
          "internalType": "address",
          "name": "to",
          "type": "address"
        },
        {
          "indexed": true,
          "internalType": "uint256",
          "name": "tokenId",
          "type": "uint256"
        }
      ],
      "name": "Transfer",
      "type": "event"
    },
    {
      "inputs": [
        {
          "internalType": "address",
          "name": "to",
          "type": "address"
        },
        {
          "internalType": "uint256",
          "name": "tokenId",
          "type": "uint256"
        }
      ],
      "name": "approve",
      "outputs": [],
      "stateMutability": "nonpayable",
      "type": "function"
    },
    {
      "inputs": [
        {
          "internalType": "address",
          "name": "owner",
          "type": "address"
        }
      ],
      "name": "balanceOf",
      "outputs": [
        {
          "internalType": "uint256",
          "name": "",
          "type": "uint256"
        }
      ],
      "stateMutability": "view",
      "type": "function"
    },
    {
      "inputs": [],
      "name": "baseURI",
      "outputs": [
        {
          "internalType": "string",
          "name": "",
          "type": "string"
        }
      ],
      "stateMutability": "view",
      "type": "function"
    },
    {
      "inputs": [
        {
          "internalType": "uint256",
          "name": "tokenId",
          "type": "uint256"
        }
      ],
      "name": "burn",
      "outputs": [],
      "stateMutability": "nonpayable",
      "type": "function"
    },
    {
      "inputs": [
        {
          "internalType": "uint256",
          "name": "tokenId",
          "type": "uint256"
        }
      ],
      "name": "getApproved",
      "outputs": [
        {
          "internalType": "address",
          "name": "",
          "type": "address"
        }
      ],
      "stateMutability": "view",
      "type": "function"
    },
    {
      "inputs": [
        {
          "internalType": "address",
          "name": "owner",
          "type": "address"
        },
        {
          "internalType": "address",
          "name": "operator",
          "type": "address"
        }
      ],
      "name": "isApprovedForAll",
      "outputs": [
        {
          "internalType": "bool",
          "name": "",
          "type": "bool"
        }
      ],
      "stateMutability": "view",
      "type": "function"
    },
    {
      "inputs": [],
      "name": "name",
      "outputs": [
        {
          "internalType": "string",
          "name": "",
          "type": "string"
        }
      ],
      "stateMutability": "view",
      "type": "function"
    },
    {
      "inputs": [
        {
          "internalType": "uint256",
          "name": "tokenId",
          "type": "uint256"
        }
      ],
      "name": "ownerOf",
      "outputs": [
        {
          "internalType": "address",
          "name": "",
          "type": "address"
        }
      ],
      "stateMutability": "view",
      "type": "function"
    },
    {
      "inputs": [
        {
          "internalType": "address",
          "name": "from",
          "type": "address"
        },
        {
          "internalType": "address",
          "name": "to",
          "type": "address"
        },
        {
          "internalType": "uint256",
          "name": "tokenId",
          "type": "uint256"
        }
      ],
      "name": "safeTransferFrom",
      "outputs": [],
      "stateMutability": "nonpayable",
      "type": "function"
    },
    {
      "inputs": [
        {
          "internalType": "address",
          "name": "operator",
          "type": "address"
        },
        {
          "internalType": "bool",
          "name": "approved",
          "type": "bool"
        }
      ],
      "name": "setApprovalForAll",
      "outputs": [],
      "stateMutability": "nonpayable",
      "type": "function"
    },
    {
      "inputs": [
        {
          "internalType": "bytes4",
          "name": "interfaceId",
          "type": "bytes4"
        }
      ],
      "name": "supportsInterface",
      "outputs": [
        {
          "internalType": "bool",
          "name": "",
          "type": "bool"
        }
      ],
      "stateMutability": "pure",
      "type": "function"
    },
    {
      "inputs": [],
      "name": "symbol",
      "outputs": [
        {
          "internalType": "string",
          "name": "",
          "type": "string"
        }
      ],
      "stateMutability": "view",
      "type": "function"
    },
    {
      "inputs": [
        {
          "internalType": "uint256",
          "name": "tokenId",
          "type": "uint256"
        }
      ],
      "name": "tokenURI",
      "outputs": [
        {
          "internalType": "string",
          "name": "",
          "type": "string"
        }
      ],
      "stateMutability": "view",
      "type": "function"
    },
    {
      "inputs": [
        {
          "internalType": "address",
          "name": "from",
          "type": "address"
        },
        {
          "internalType": "address",
          "name": "to",
          "type": "address"
        },
        {
          "internalType": "uint256",
          "name": "tokenId",
          "type": "uint256"
        }
      ],
      "name": "transferFrom",
      "outputs": [],
      "stateMutability": "nonpayable",
      "type": "function"
    }
  ],
  "bytecode": "0x60806040523480156200001157600080fd5b5060405162001709380380620017098339810160408190526200003491620001b5565b620000466301ffc9a760e01b6200006c565b6001620000548382620002ae565b506002620000638282620002ae565b5050506200037a565b6001600160e01b03198082169003620000cb5760405162461bcd60e51b815260206004820152601c60248201527f4552433136353a20696e76616c696420696e7465726661636520696400000000604482015260640160405180910390fd5b6001600160e01b0319166000908152602081905260409020805460ff19166001179055565b634e487b7160e01b600052604160045260246000fd5b600082601f8301126200011857600080fd5b81516001600160401b0380821115620001355762000135620000f0565b604051601f8301601f19908116603f01168101908282118183101715620001605762000160620000f0565b816040528381526020925086838588010111156200017d57600080fd5b600091505b83821015620001a1578582018301518183018401529082019062000182565b600093810190920192909252949350505050565b60008060408385031215620001c957600080fd5b82516001600160401b0380821115620001e157600080fd5b620001ef8683870162000106565b935060208501519150808211156200020657600080fd5b50620002158582860162000106565b9150509250929050565b600181811c908216806200023457607f821691505b6020821081036200025557634e487b7160e01b600052602260045260246000fd5b50919050565b601f821115620002a957600081815260208120601f850160051c81016020861015620002845750805b601f850160051c820191505b81811015620002a55782815560010162000290565b5050505b505050565b81516001600160401b03811115620002ca57620002ca620000f0565b620002e281620002db84546200021f565b846200025b565b602080601f8311600181146200031a5760008415620003015750858301515b600019600386901b1c1916600185901b178555620002a5565b600085815260208120601f198616915b828110156200034b578886015182559484019460019091019084016200032a565b50858210156200036a5787850151600019600388901b60f8161c191681555b5050505050600190811b01905550565b61137f806200038a6000396000f3fe608060405234801561001057600080fd5b50600436106100ea5760003560e01c80636352211e1161008c57806395d89b411161006657806395d89b41146101e1578063a22cb465146101e9578063c87b56dd146101fc578063e985e9c51461020f57600080fd5b80636352211e146101a55780636c0360eb146101b857806370a08231146101c057600080fd5b8063095ea7b3116100c8578063095ea7b31461015757806323b872dd1461016c57806342842e0e1461017f57806342966c681461019257600080fd5b806301ffc9a7146100ef57806306fdde0314610117578063081812fc1461012c575b600080fd5b6101026100fd366004611011565b61024b565b60405190151581526020015b60405180910390f35b61011f6102e4565b60405161010e919061107e565b61013f61013a366004611091565b610376565b6040516001600160a01b03909116815260200161010e565b61016a6101653660046110c6565b610402565b005b61016a61017a3660046110f0565b61055f565b61016a61018d3660046110f0565b6105c5565b61016a6101a0366004611091565b610626565b61013f6101b3366004611091565b610688565b61011f61070b565b6101d36101ce36600461112c565b61071a565b60405190815260200161010e565b61011f61078e565b61016a6101f7366004611147565b61079d565b61011f61020a366004611091565b61087f565b61010261021d366004611183565b6001600160a01b03918216600090815260086020908152604080832093909416825291909152205460ff1690565b60007fffffffff0000000000000000000000000000000000000000000000000000000082167f382117130000000000000000000000000000000000000000000000000000000014806102de57507fffffffff0000000000000000000000000000000000000000000000000000000082167f5b5e139f00000000000000000000000000000000000000000000000000000000145b92915050565b6060600180546102f3906111b6565b80601f016020809104026020016040519081016040528092919081815260200182805461031f906111b6565b801561036c5780601f106103415761010080835404028352916020019161036c565b820191906000526020600020905b81548152906001019060200180831161034f57829003601f168201915b5050505050905090565b60008181526005602052604081205482906001600160a01b03166103e15760405162461bcd60e51b815260206004820152600a60248201527f6e6f74206d696e7465640000000000000000000000000000000000000000000060448201526064015b60405180910390fd5b6000838152600660205260409020546001600160a01b031691505b50919050565b600061040d82610688565b90506001600160a01b03811633148061044957506001600160a01b038116600090815260086020908152604080832033845290915290205460ff165b6104955760405162461bcd60e51b815260206004820152600c60248201527f6e6f7420616e206f776e6572000000000000000000000000000000000000000060448201526064016103d8565b806001600160a01b0316836001600160a01b0316036104f65760405162461bcd60e51b815260206004820152601660248201527f63616e6e6f7420617070726f766520746f2073656c660000000000000000000060448201526064016103d8565b600082815260066020526040808220805473ffffffffffffffffffffffffffffffffffffffff19166001600160a01b0387811691821790925591518593918516917f8c5be1e5ebec7d5bd14f71427d1e84f3dd0314c0f7b2291e5b200ac8c7c3b92591a4505050565b6105693382610a0e565b6105b55760405162461bcd60e51b815260206004820152601860248201527f6e6f7420616e206f776e6572206f7220617070726f766564000000000000000060448201526064016103d8565b6105c0838383610a8d565b505050565b6105cf3382610a0e565b61061b5760405162461bcd60e51b815260206004820152601860248201527f6e6f7420616e206f776e6572206f7220617070726f766564000000000000000060448201526064016103d8565b6105c0838383610c07565b6106303382610a0e565b61067c5760405162461bcd60e51b815260206004820152600a60248201527f6e6f74206f776e6572210000000000000000000000000000000000000000000060448201526064016103d8565b61068581610c69565b50565b60008181526005602052604081205482906001600160a01b03166106ee5760405162461bcd60e51b815260206004820152600a60248201527f6e6f74206d696e7465640000000000000000000000000000000000000000000060448201526064016103d8565b50506000908152600560205260409020546001600160a01b031690565b6060600380546102f3906111b6565b60006001600160a01b0382166107725760405162461bcd60e51b815260206004820152600c60248201527f7a65726f2061646472657373000000000000000000000000000000000000000060448201526064016103d8565b506001600160a01b031660009081526004602052604090205490565b6060600280546102f3906111b6565b6001600160a01b03821633036107f55760405162461bcd60e51b815260206004820152601660248201527f63616e6e6f7420617070726f766520746f2073656c660000000000000000000060448201526064016103d8565b3360008181526008602090815260408083206001600160a01b0387168085529083529281902080547fffffffffffffffffffffffffffffffffffffffffffffffffffffffffffffff001686151590811790915590519081529192917f17307eab39ab6107e8899845ad3d59bd9653f200f220920489ca2b5937696c31910160405180910390a35050565b6000818152600560205260409020546060906001600160a01b031661090c5760405162461bcd60e51b815260206004820152602f60248201527f4552433732314d657461646174613a2055524920717565727920666f72206e6f60448201527f6e6578697374656e7420746f6b656e000000000000000000000000000000000060648201526084016103d8565b60008281526007602052604081208054610925906111b6565b80601f0160208091040260200160405190810160405280929190818152602001828054610951906111b6565b801561099e5780601f106109735761010080835404028352916020019161099e565b820191906000526020600020905b81548152906001019060200180831161098157829003601f168201915b5050505050905060006109af61070b565b905080516000036109c1575092915050565b8151156109f35780826040516020016109db9291906111ea565b60405160208183030381529060405292505050919050565b806109fd85610d28565b6040516020016109db9291906111ea565b600080610a1a83610688565b9050806001600160a01b0316846001600160a01b03161480610a6157506001600160a01b0380821660009081526008602090815260408083209388168352929052205460ff165b80610a855750836001600160a01b0316610a7a84610376565b6001600160a01b0316145b949350505050565b826001600160a01b0316610aa082610688565b6001600160a01b031614610af65760405162461bcd60e51b815260206004820152600c60248201527f6e6f7420616e206f776e6572000000000000000000000000000000000000000060448201526064016103d8565b6001600160a01b038216610b4c5760405162461bcd60e51b815260206004820152601260248201527f746f2063616e6e6f74206265207a65726f21000000000000000000000000000060448201526064016103d8565b6001600160a01b0383166000908152600460205260408120805491610b708361122f565b90915550506001600160a01b0382166000908152600460205260408120805491610b9983611246565b9091555050600081815260056020526040808220805473ffffffffffffffffffffffffffffffffffffffff19166001600160a01b0386811691821790925591518493918716917fddf252ad1be2c89b69c2b068fc378daa952ba7f163c4a11628f55a4df523b3ef91a4505050565b610c12838383610a8d565b610c1d838383610e5d565b6105c05760405162461bcd60e51b815260206004820152601360248201527f6e6f6e206572633732312072656365697665720000000000000000000000000060448201526064016103d8565b6000610c7482610688565b90506000828152600660209081526040808320805473ffffffffffffffffffffffffffffffffffffffff191690556001600160a01b038416835260049091528120805491610cc18361122f565b9091555050600082815260056020526040808220805473ffffffffffffffffffffffffffffffffffffffff19169055518391906001600160a01b038416907fddf252ad1be2c89b69c2b068fc378daa952ba7f163c4a11628f55a4df523b3ef908390a45050565b606081600003610d6b57505060408051808201909152600181527f3000000000000000000000000000000000000000000000000000000000000000602082015290565b8160005b8115610d955780610d7f81611246565b9150610d8e9050600a83611276565b9150610d6f565b60008167ffffffffffffffff811115610db057610db061128a565b6040519080825280601f01601f191660200182016040528015610dda576020820181803683370190505b5090505b8415610a8557610def6001836112a0565b9150610dfc600a866112b3565b610e079060306112c7565b60f81b818381518110610e1c57610e1c6112da565b60200101907effffffffffffffffffffffffffffffffffffffffffffffffffffffffffffff1916908160001a905350610e56600a86611276565b9450610dde565b60006001600160a01b0383163b15610fd857604080516020810182526000815290517f150b7a020000000000000000000000000000000000000000000000000000000081526001600160a01b0385169163150b7a0291610ec5913391899188916004016112f0565b6020604051808303816000875af1925050508015610f00575060408051601f3d908101601f19168201909252610efd9181019061132c565b60015b610f8d573d808015610f2e576040519150601f19603f3d011682016040523d82523d6000602084013e610f33565b606091505b508051600003610f855760405162461bcd60e51b815260206004820152601560248201527f4e6f6e652065726337323120726563656976657221000000000000000000000060448201526064016103d8565b805181602001fd5b7fffffffff00000000000000000000000000000000000000000000000000000000167f150b7a0200000000000000000000000000000000000000000000000000000000149050610fdc565b5060015b9392505050565b7fffffffff000000000000000000000000000000000000000000000000000000008116811461068557600080fd5b60006020828403121561102357600080fd5b8135610fdc81610fe3565b60005b83811015611049578181015183820152602001611031565b50506000910152565b6000815180845261106a81602086016020860161102e565b601f01601f19169290920160200192915050565b602081526000610fdc6020830184611052565b6000602082840312156110a357600080fd5b5035919050565b80356001600160a01b03811681146110c157600080fd5b919050565b600080604083850312156110d957600080fd5b6110e2836110aa565b946020939093013593505050565b60008060006060848603121561110557600080fd5b61110e846110aa565b925061111c602085016110aa565b9150604084013590509250925092565b60006020828403121561113e57600080fd5b610fdc826110aa565b6000806040838503121561115a57600080fd5b611163836110aa565b91506020830135801515811461117857600080fd5b809150509250929050565b6000806040838503121561119657600080fd5b61119f836110aa565b91506111ad602084016110aa565b90509250929050565b600181811c908216806111ca57607f821691505b6020821081036103fc57634e487b7160e01b600052602260045260246000fd5b600083516111fc81846020880161102e565b83519083019061121081836020880161102e565b01949350505050565b634e487b7160e01b600052601160045260246000fd5b60008161123e5761123e611219565b506000190190565b6000600019820361125957611259611219565b5060010190565b634e487b7160e01b600052601260045260246000fd5b60008261128557611285611260565b500490565b634e487b7160e01b600052604160045260246000fd5b818103818111156102de576102de611219565b6000826112c2576112c2611260565b500690565b808201808211156102de576102de611219565b634e487b7160e01b600052603260045260246000fd5b60006001600160a01b038087168352808616602084015250836040830152608060608301526113226080830184611052565b9695505050505050565b60006020828403121561133e57600080fd5b8151610fdc81610fe356fea264697066735822122093cb1b11436c08073444a1aeda96a12520f08084294df0937ba67e1c23ea36b564736f6c63430008110033",
  "linkReferences": {},
  "deployedLinkReferences": {}
}